{
    "contractName": "Donat",
    "abi": [
        {
            "inputs": [],
            "stateMutability": "nonpayable",
            "type": "constructor"
        },
        {
            "inputs": [],
            "name": "Owner",
            "outputs": [
                {
                    "internalType": "address",
                    "name": "",
                    "type": "address"
                }
            ],
            "stateMutability": "nonpayable",
            "type": "function"
        },
        {
            "inputs": [
                {
                    "internalType": "uint256",
                    "name": "",
                    "type": "uint256"
                }
            ],
            "name": "donators",
            "outputs": [
                {
                    "internalType": "address",
                    "name": "",
                    "type": "address"
                }
            ],
            "stateMutability": "view",
            "type": "function"
        },
        {
            "inputs": [],
            "name": "gatherDonation",
            "outputs": [],
            "stateMutability": "payable",
            "type": "function"
        },
        {
            "inputs": [],
            "name": "getDonators",
            "outputs": [
                {
                    "internalType": "address[]",
                    "name": "",
                    "type": "address[]"
                }
            ],
            "stateMutability": "nonpayable",
            "type": "function"
        },
        {
            "inputs": [],
            "name": "getTotalDonations",
            "outputs": [
                {
                    "internalType": "uint256",
                    "name": "",
                    "type": "uint256"
                }
            ],
            "stateMutability": "nonpayable",
            "type": "function"
        },
        {
            "inputs": [],
            "name": "owner",
            "outputs": [
                {
                    "internalType": "address payable",
                    "name": "",
                    "type": "address"
                }
            ],
            "stateMutability": "view",
            "type": "function"
        },
        {
            "inputs": [],
            "name": "transferToOwner",
            "outputs": [],
            "stateMutability": "nonpayable",
            "type": "function"
        }
    ],
    "bytecode": "608060405234801561001057600080fd5b50600080546001600160a01b03191633179055610339806100326000396000f3fe6080604052600436106100705760003560e01c80638da5cb5b1161004e5780638da5cb5b146100bb578063ac62f566146100ec578063b4a99a4e14610116578063bf1482fa1461012b57610070565b806306883ad3146100755780632d90ae941461007f578063777c658f14610094575b600080fd5b61007d610190565b005b34801561008b57600080fd5b5061007d6101e7565b3480156100a057600080fd5b506100a961023b565b60408051918252519081900360200190f35b3480156100c757600080fd5b506100d0610241565b604080516001600160a01b039092168252519081900360200190f35b3480156100f857600080fd5b506100d06004803603602081101561010f57600080fd5b5035610250565b34801561012257600080fd5b506100d061027a565b34801561013757600080fd5b50610140610289565b60408051602080825283518183015283519192839290830191858101910280838360005b8381101561017c578181015183820152602001610164565b505050509050019250505060405180910390f35b671bc16d674ec8000034116101a457600080fd5b6001805480820182556000919091527fb10e2d527612073b26eecdfd717e6a320cf44b4afac2b0732d9fcbe2b7fa0cf60180546001600160a01b03191633179055565b6000546001600160a01b031633146101fe57600080fd5b600080546040516001600160a01b03909116914780156108fc02929091818181858888f19350505050158015610238573d6000803e3d6000fd5b50565b60025490565b6000546001600160a01b031681565b6001818154811061026057600080fd5b6000918252602090912001546001600160a01b0316905081565b6000546001600160a01b031690565b6000546060906001600160a01b031633146102a357600080fd5b60018054806020026020016040519081016040528092919081815260200182805480156102f957602002820191906000526020600020905b81546001600160a01b031681526001909101906020018083116102db575b505050505090509056fea264697066735822122056e7b5c17d70e404913a2768d682b54533e5561c3fa55940ae0705e6c444074864736f6c63430007040033",
    "sourcePath": "d:/test/contracts/Donat.sol",
    "compiler": {
        "name": "solc",
        "version": "0.7.4+commit.3f05b770"
    },
    "functionHashes": {
        "Owner()": "b4a99a4e",
        "donators(uint256)": "ac62f566",
        "gatherDonation()": "06883ad3",
        "getDonators()": "bf1482fa",
        "getTotalDonations()": "777c658f",
        "owner()": "8da5cb5b",
        "transferToOwner()": "2d90ae94"
    },
    "gasEstimates": {
        "creation": {
            "codeDepositCost": "165000",
            "executionCost": "21043",
            "totalCost": "186043"
        },
        "external": {
            "Owner()": "1081",
            "donators(uint256)": "1992",
            "gatherDonation()": "41814",
            "getDonators()": "infinite",
            "getTotalDonations()": "1043",
            "owner()": "1037",
            "transferToOwner()": "infinite"
        }
    }
}